{
  "contractName": "JobPost",
  "abi": [
    {
      "constant": true,
      "inputs": [
        {
          "name": "",
          "type": "uint256"
        }
      ],
      "name": "posterAccounts",
      "outputs": [
        {
          "name": "",
          "type": "address"
        }
      ],
      "payable": false,
      "stateMutability": "view",
      "type": "function"
    },
    {
      "constant": true,
      "inputs": [],
      "name": "getJobCount",
      "outputs": [
        {
          "name": "",
          "type": "uint256"
        }
      ],
      "payable": false,
      "stateMutability": "view",
      "type": "function"
    },
    {
      "constant": true,
      "inputs": [
        {
          "name": "i",
          "type": "uint256"
        }
      ],
      "name": "getJob",
      "outputs": [
        {
          "name": "",
          "type": "uint256"
        },
        {
          "name": "",
          "type": "string"
        },
        {
          "name": "",
          "type": "string"
        },
        {
          "name": "",
          "type": "uint256"
        },
        {
          "name": "",
          "type": "address"
        }
      ],
      "payable": false,
      "stateMutability": "view",
      "type": "function"
    },
    {
      "constant": false,
      "inputs": [
        {
          "name": "title",
          "type": "string"
        },
        {
          "name": "desc",
          "type": "string"
        },
        {
          "name": "pay",
          "type": "uint256"
        }
      ],
      "name": "addJob",
      "outputs": [],
      "payable": false,
      "stateMutability": "nonpayable",
      "type": "function"
    }
  ],
  "bytecode": "0x606060405260008055341561001357600080fd5b610749806100226000396000f300606060405260043610610062576000357c0100000000000000000000000000000000000000000000000000000000900463ffffffff1680633b1f59cc14610067578063b02b4a2f146100ca578063bf22c457146100f3578063fa6b104a1461023c575b600080fd5b341561007257600080fd5b61008860048080359060200190919050506102e5565b604051808273ffffffffffffffffffffffffffffffffffffffff1673ffffffffffffffffffffffffffffffffffffffff16815260200191505060405180910390f35b34156100d557600080fd5b6100dd610324565b6040518082815260200191505060405180910390f35b34156100fe57600080fd5b610114600480803590602001909190505061032d565b6040518086815260200180602001806020018581526020018473ffffffffffffffffffffffffffffffffffffffff1673ffffffffffffffffffffffffffffffffffffffff168152602001838103835287818151815260200191508051906020019080838360005b8381101561019657808201518184015260208101905061017b565b50505050905090810190601f1680156101c35780820380516001836020036101000a031916815260200191505b50838103825286818151815260200191508051906020019080838360005b838110156101fc5780820151818401526020810190506101e1565b50505050905090810190601f1680156102295780820380516001836020036101000a031916815260200191505b5097505050505050505060405180910390f35b341561024757600080fd5b6102e3600480803590602001908201803590602001908080601f0160208091040260200160405190810160405280939291908181526020018383808284378201915050505050509190803590602001908201803590602001908080601f0160208091040260200160405190810160405280939291908181526020018383808284378201915050505050509190803590602001909190505061051e565b005b6002818154811015156102f457fe5b90600052602060002090016000915054906101000a900473ffffffffffffffffffffffffffffffffffffffff1681565b60008054905090565b6000610337610638565b61033f610638565b60008060016000878152602001908152602001600020600001546001600088815260200190815260200160002060010160016000898152602001908152602001600020600201600160008a815260200190815260200160002060030154600160008b815260200190815260200160002060040160009054906101000a900473ffffffffffffffffffffffffffffffffffffffff16838054600181600116156101000203166002900480601f0160208091040260200160405190810160405280929190818152602001828054600181600116156101000203166002900480156104685780601f1061043d57610100808354040283529160200191610468565b820191906000526020600020905b81548152906001019060200180831161044b57829003601f168201915b50505050509350828054600181600116156101000203166002900480601f0160208091040260200160405190810160405280929190818152602001828054600181600116156101000203166002900480156105045780601f106104d957610100808354040283529160200191610504565b820191906000526020600020905b8154815290600101906020018083116104e757829003601f168201915b505050505092509450945094509450945091939590929450565b60006001600080548152602001908152602001600020905060005481600001819055508381600101908051906020019061055992919061064c565b508281600201908051906020019061057292919061064c565b50818160030181905550338160040160006101000a81548173ffffffffffffffffffffffffffffffffffffffff021916908373ffffffffffffffffffffffffffffffffffffffff16021790555060016000808282540192505081905550600280548060010182816105e391906106cc565b9160005260206000209001600033909190916101000a81548173ffffffffffffffffffffffffffffffffffffffff021916908373ffffffffffffffffffffffffffffffffffffffff1602179055505050505050565b602060405190810160405280600081525090565b828054600181600116156101000203166002900490600052602060002090601f016020900481019282601f1061068d57805160ff19168380011785556106bb565b828001600101855582156106bb579182015b828111156106ba57825182559160200191906001019061069f565b5b5090506106c891906106f8565b5090565b8154818355818115116106f3578183600052602060002091820191016106f291906106f8565b5b505050565b61071a91905b808211156107165760008160009055506001016106fe565b5090565b905600a165627a7a72305820a88def7225fef8b3e12772a3b1f1ed1f133664ec1d6f15c7d740398873557da30029",
  "source": "pragma solidity ^0.4.4;\n\ncontract JobPost{\n  struct Job {\n    uint id;\n    string title;\n    string description;\n    uint payment;\n    address owner;\n  }\n\n  uint totalJobs = 0;\n  mapping (uint => Job) allJobs;\n  address[] public posterAccounts;\n\n  function addJob(string title, string desc, uint pay) public{\n    var job = allJobs[totalJobs];\n\n    job.id = totalJobs;\n    job.title = title;\n    job.description = desc;\n    job.payment = pay;\n    job.owner = msg.sender;\n\n    totalJobs += 1;\n\n    posterAccounts.push(msg.sender);\n  }\n\n  function getJob(uint i) constant returns(uint,string,string, uint, address) {\n\n    return (allJobs[i].id, allJobs[i].title, allJobs[i].description, allJobs[i].payment, allJobs[i].owner);\n  }\n\n  function getJobCount() constant returns (uint){\n    return totalJobs;\n  }\n\n}\n",
  "sourcePath": "/home/dean/Dropbox/Projects/2018-CA326-dlynch-openfreelancehub/code/contracts/JobPost.sol",
  "compiler": {
    "name": "solc",
    "version": "0.4.18+commit.9cf6e910.Emscripten.clang"
  },
  "schemaVersion": "1.0.1",
  "updatedAt": "2018-02-12T14:32:39.524Z"
}