{
  "contractName": "JobPost",
  "abi": [
    {
      "constant": true,
      "inputs": [
        {
          "name": "",
          "type": "uint256"
        }
      ],
      "name": "posterAccounts",
      "outputs": [
        {
          "name": "",
          "type": "address"
        }
      ],
      "payable": false,
      "stateMutability": "view",
      "type": "function"
    },
    {
      "constant": true,
      "inputs": [],
      "name": "getJobCount",
      "outputs": [
        {
          "name": "",
          "type": "uint256"
        }
      ],
      "payable": false,
      "stateMutability": "view",
      "type": "function"
    },
    {
      "constant": true,
      "inputs": [
        {
          "name": "i",
          "type": "uint256"
        }
      ],
      "name": "getJobs",
      "outputs": [
        {
          "name": "",
          "type": "string"
        },
        {
          "name": "",
          "type": "string"
        },
        {
          "name": "",
          "type": "uint256"
        }
      ],
      "payable": false,
      "stateMutability": "view",
      "type": "function"
    },
    {
      "constant": false,
      "inputs": [
        {
          "name": "title",
          "type": "string"
        },
        {
          "name": "desc",
          "type": "string"
        },
        {
          "name": "pay",
          "type": "uint256"
        }
      ],
      "name": "addJob",
      "outputs": [],
      "payable": false,
      "stateMutability": "nonpayable",
      "type": "function"
    }
  ],
  "bytecode": "0x606060405260008055341561001357600080fd5b61066a806100226000396000f300606060405260043610610062576000357c0100000000000000000000000000000000000000000000000000000000900463ffffffff1680633b1f59cc14610067578063b02b4a2f146100ca578063ec26a3db146100f3578063fa6b104a14610202575b600080fd5b341561007257600080fd5b61008860048080359060200190919050506102ab565b604051808273ffffffffffffffffffffffffffffffffffffffff1673ffffffffffffffffffffffffffffffffffffffff16815260200191505060405180910390f35b34156100d557600080fd5b6100dd6102ea565b6040518082815260200191505060405180910390f35b34156100fe57600080fd5b61011460048080359060200190919050506102f3565b604051808060200180602001848152602001838103835286818151815260200191508051906020019080838360005b8381101561015e578082015181840152602081019050610143565b50505050905090810190601f16801561018b5780820380516001836020036101000a031916815260200191505b50838103825285818151815260200191508051906020019080838360005b838110156101c45780820151818401526020810190506101a9565b50505050905090810190601f1680156101f15780820380516001836020036101000a031916815260200191505b509550505050505060405180910390f35b341561020d57600080fd5b6102a9600480803590602001908201803590602001908080601f0160208091040260200160405190810160405280939291908181526020018383808284378201915050505050509190803590602001908201803590602001908080601f0160208091040260200160405190810160405280939291908181526020018383808284378201915050505050509190803590602001909190505061048d565b005b6002818154811015156102ba57fe5b90600052602060002090016000915054906101000a900473ffffffffffffffffffffffffffffffffffffffff1681565b60008054905090565b6102fb610559565b610303610559565b600060016000858152602001908152602001600020600001600160008681526020019081526020016000206001016001600087815260200190815260200160002060020154828054600181600116156101000203166002900480601f0160208091040260200160405190810160405280929190818152602001828054600181600116156101000203166002900480156103dd5780601f106103b2576101008083540402835291602001916103dd565b820191906000526020600020905b8154815290600101906020018083116103c057829003601f168201915b50505050509250818054600181600116156101000203166002900480601f0160208091040260200160405190810160405280929190818152602001828054600181600116156101000203166002900480156104795780601f1061044e57610100808354040283529160200191610479565b820191906000526020600020905b81548152906001019060200180831161045c57829003601f168201915b505050505091509250925092509193909250565b600060016000805481526020019081526020016000209050838160000190805190602001906104bd92919061056d565b50828160010190805190602001906104d692919061056d565b50818160020181905550600160008082825401925050819055506002805480600101828161050491906105ed565b9160005260206000209001600033909190916101000a81548173ffffffffffffffffffffffffffffffffffffffff021916908373ffffffffffffffffffffffffffffffffffffffff1602179055505050505050565b602060405190810160405280600081525090565b828054600181600116156101000203166002900490600052602060002090601f016020900481019282601f106105ae57805160ff19168380011785556105dc565b828001600101855582156105dc579182015b828111156105db5782518255916020019190600101906105c0565b5b5090506105e99190610619565b5090565b815481835581811511610614578183600052602060002091820191016106139190610619565b5b505050565b61063b91905b8082111561063757600081600090555060010161061f565b5090565b905600a165627a7a723058203921d4ad2d12d426d0080a26ee40b83ead2a9c4288e2855e8c447d0a2673f09d0029",
  "source": "pragma solidity ^0.4.4;\n\ncontract JobPost{\n  struct Job {\n    string title;\n    string description;\n    uint payment;\n  }\n\n  uint totalJobs = 0;\n  mapping (uint => Job) allJobs;\n  address[] public posterAccounts;\n\n  function addJob(string title, string desc, uint pay) public{\n    var job = allJobs[totalJobs];\n\n    job.title = title;\n    job.description = desc;\n    job.payment = pay;\n\n    totalJobs += 1;\n\n    posterAccounts.push(msg.sender);\n  }\n\n  function getJobs(uint i) constant returns(string,string, uint) {\n\n    return (allJobs[i].title, allJobs[i].description, allJobs[i].payment);\n  }\n\n  function getJobCount() constant returns (uint){\n    return totalJobs;\n  }\n\n}\n",
  "sourcePath": "/home/dean/Dropbox/Projects/2018-CA326-dlynch-openfreelancehub/code/contracts/JobPost.sol",
  "compiler": {
    "name": "solc",
    "version": "0.4.18+commit.9cf6e910.Emscripten.clang"
  },
  "schemaVersion": "1.0.1",
  "updatedAt": "2018-01-31T16:43:46.812Z"
}